{
  "_format": "hh-sol-artifact-1",
  "contractName": "KalyswapRouter",
  "sourceName": "contracts/kalyswap-periphery/KalyswapRouter.sol",
  "abi": [
    {
      "inputs": [
        {
          "internalType": "address",
          "name": "_factory",
          "type": "address"
        },
        {
          "internalType": "address",
          "name": "_WKLC",
          "type": "address"
        }
      ],
      "stateMutability": "nonpayable",
      "type": "constructor"
    },
    {
      "inputs": [],
      "name": "WKLC",
      "outputs": [
        {
          "internalType": "address",
          "name": "",
          "type": "address"
        }
      ],
      "stateMutability": "view",
      "type": "function"
    },
    {
      "inputs": [
        {
          "internalType": "address",
          "name": "tokenA",
          "type": "address"
        },
        {
          "internalType": "address",
          "name": "tokenB",
          "type": "address"
        },
        {
          "internalType": "uint256",
          "name": "amountADesired",
          "type": "uint256"
        },
        {
          "internalType": "uint256",
          "name": "amountBDesired",
          "type": "uint256"
        },
        {
          "internalType": "uint256",
          "name": "amountAMin",
          "type": "uint256"
        },
        {
          "internalType": "uint256",
          "name": "amountBMin",
          "type": "uint256"
        },
        {
          "internalType": "address",
          "name": "to",
          "type": "address"
        },
        {
          "internalType": "uint256",
          "name": "deadline",
          "type": "uint256"
        }
      ],
      "name": "addLiquidity",
      "outputs": [
        {
          "internalType": "uint256",
          "name": "amountA",
          "type": "uint256"
        },
        {
          "internalType": "uint256",
          "name": "amountB",
          "type": "uint256"
        },
        {
          "internalType": "uint256",
          "name": "liquidity",
          "type": "uint256"
        }
      ],
      "stateMutability": "nonpayable",
      "type": "function"
    },
    {
      "inputs": [
        {
          "internalType": "address",
          "name": "token",
          "type": "address"
        },
        {
          "internalType": "uint256",
          "name": "amountTokenDesired",
          "type": "uint256"
        },
        {
          "internalType": "uint256",
          "name": "amountTokenMin",
          "type": "uint256"
        },
        {
          "internalType": "uint256",
          "name": "amountKLCMin",
          "type": "uint256"
        },
        {
          "internalType": "address",
          "name": "to",
          "type": "address"
        },
        {
          "internalType": "uint256",
          "name": "deadline",
          "type": "uint256"
        }
      ],
      "name": "addLiquidityKLC",
      "outputs": [
        {
          "internalType": "uint256",
          "name": "amountToken",
          "type": "uint256"
        },
        {
          "internalType": "uint256",
          "name": "amountKLC",
          "type": "uint256"
        },
        {
          "internalType": "uint256",
          "name": "liquidity",
          "type": "uint256"
        }
      ],
      "stateMutability": "payable",
      "type": "function"
    },
    {
      "inputs": [],
      "name": "factory",
      "outputs": [
        {
          "internalType": "address",
          "name": "",
          "type": "address"
        }
      ],
      "stateMutability": "view",
      "type": "function"
    },
    {
      "inputs": [
        {
          "internalType": "uint256",
          "name": "amountOut",
          "type": "uint256"
        },
        {
          "internalType": "uint256",
          "name": "reserveIn",
          "type": "uint256"
        },
        {
          "internalType": "uint256",
          "name": "reserveOut",
          "type": "uint256"
        }
      ],
      "name": "getAmountIn",
      "outputs": [
        {
          "internalType": "uint256",
          "name": "amountIn",
          "type": "uint256"
        }
      ],
      "stateMutability": "pure",
      "type": "function"
    },
    {
      "inputs": [
        {
          "internalType": "uint256",
          "name": "amountIn",
          "type": "uint256"
        },
        {
          "internalType": "uint256",
          "name": "reserveIn",
          "type": "uint256"
        },
        {
          "internalType": "uint256",
          "name": "reserveOut",
          "type": "uint256"
        }
      ],
      "name": "getAmountOut",
      "outputs": [
        {
          "internalType": "uint256",
          "name": "amountOut",
          "type": "uint256"
        }
      ],
      "stateMutability": "pure",
      "type": "function"
    },
    {
      "inputs": [
        {
          "internalType": "uint256",
          "name": "amountOut",
          "type": "uint256"
        },
        {
          "internalType": "address[]",
          "name": "path",
          "type": "address[]"
        }
      ],
      "name": "getAmountsIn",
      "outputs": [
        {
          "internalType": "uint256[]",
          "name": "amounts",
          "type": "uint256[]"
        }
      ],
      "stateMutability": "view",
      "type": "function"
    },
    {
      "inputs": [
        {
          "internalType": "uint256",
          "name": "amountIn",
          "type": "uint256"
        },
        {
          "internalType": "address[]",
          "name": "path",
          "type": "address[]"
        }
      ],
      "name": "getAmountsOut",
      "outputs": [
        {
          "internalType": "uint256[]",
          "name": "amounts",
          "type": "uint256[]"
        }
      ],
      "stateMutability": "view",
      "type": "function"
    },
    {
      "inputs": [
        {
          "internalType": "uint256",
          "name": "amountA",
          "type": "uint256"
        },
        {
          "internalType": "uint256",
          "name": "reserveA",
          "type": "uint256"
        },
        {
          "internalType": "uint256",
          "name": "reserveB",
          "type": "uint256"
        }
      ],
      "name": "quote",
      "outputs": [
        {
          "internalType": "uint256",
          "name": "amountB",
          "type": "uint256"
        }
      ],
      "stateMutability": "pure",
      "type": "function"
    },
    {
      "inputs": [
        {
          "internalType": "address",
          "name": "tokenA",
          "type": "address"
        },
        {
          "internalType": "address",
          "name": "tokenB",
          "type": "address"
        },
        {
          "internalType": "uint256",
          "name": "liquidity",
          "type": "uint256"
        },
        {
          "internalType": "uint256",
          "name": "amountAMin",
          "type": "uint256"
        },
        {
          "internalType": "uint256",
          "name": "amountBMin",
          "type": "uint256"
        },
        {
          "internalType": "address",
          "name": "to",
          "type": "address"
        },
        {
          "internalType": "uint256",
          "name": "deadline",
          "type": "uint256"
        }
      ],
      "name": "removeLiquidity",
      "outputs": [
        {
          "internalType": "uint256",
          "name": "amountA",
          "type": "uint256"
        },
        {
          "internalType": "uint256",
          "name": "amountB",
          "type": "uint256"
        }
      ],
      "stateMutability": "nonpayable",
      "type": "function"
    },
    {
      "inputs": [
        {
          "internalType": "address",
          "name": "token",
          "type": "address"
        },
        {
          "internalType": "uint256",
          "name": "liquidity",
          "type": "uint256"
        },
        {
          "internalType": "uint256",
          "name": "amountTokenMin",
          "type": "uint256"
        },
        {
          "internalType": "uint256",
          "name": "amountKLCMin",
          "type": "uint256"
        },
        {
          "internalType": "address",
          "name": "to",
          "type": "address"
        },
        {
          "internalType": "uint256",
          "name": "deadline",
          "type": "uint256"
        }
      ],
      "name": "removeLiquidityKLC",
      "outputs": [
        {
          "internalType": "uint256",
          "name": "amountToken",
          "type": "uint256"
        },
        {
          "internalType": "uint256",
          "name": "amountKLC",
          "type": "uint256"
        }
      ],
      "stateMutability": "nonpayable",
      "type": "function"
    },
    {
      "inputs": [
        {
          "internalType": "address",
          "name": "token",
          "type": "address"
        },
        {
          "internalType": "uint256",
          "name": "liquidity",
          "type": "uint256"
        },
        {
          "internalType": "uint256",
          "name": "amountTokenMin",
          "type": "uint256"
        },
        {
          "internalType": "uint256",
          "name": "amountKLCMin",
          "type": "uint256"
        },
        {
          "internalType": "address",
          "name": "to",
          "type": "address"
        },
        {
          "internalType": "uint256",
          "name": "deadline",
          "type": "uint256"
        }
      ],
      "name": "removeLiquidityKLCSupportingFeeOnTransferTokens",
      "outputs": [
        {
          "internalType": "uint256",
          "name": "amountKLC",
          "type": "uint256"
        }
      ],
      "stateMutability": "nonpayable",
      "type": "function"
    },
    {
      "inputs": [
        {
          "internalType": "address",
          "name": "token",
          "type": "address"
        },
        {
          "internalType": "uint256",
          "name": "liquidity",
          "type": "uint256"
        },
        {
          "internalType": "uint256",
          "name": "amountTokenMin",
          "type": "uint256"
        },
        {
          "internalType": "uint256",
          "name": "amountKLCMin",
          "type": "uint256"
        },
        {
          "internalType": "address",
          "name": "to",
          "type": "address"
        },
        {
          "internalType": "uint256",
          "name": "deadline",
          "type": "uint256"
        },
        {
          "internalType": "bool",
          "name": "approveMax",
          "type": "bool"
        },
        {
          "internalType": "uint8",
          "name": "v",
          "type": "uint8"
        },
        {
          "internalType": "bytes32",
          "name": "r",
          "type": "bytes32"
        },
        {
          "internalType": "bytes32",
          "name": "s",
          "type": "bytes32"
        }
      ],
      "name": "removeLiquidityKLCWithPermit",
      "outputs": [
        {
          "internalType": "uint256",
          "name": "amountToken",
          "type": "uint256"
        },
        {
          "internalType": "uint256",
          "name": "amountKLC",
          "type": "uint256"
        }
      ],
      "stateMutability": "nonpayable",
      "type": "function"
    },
    {
      "inputs": [
        {
          "internalType": "address",
          "name": "token",
          "type": "address"
        },
        {
          "internalType": "uint256",
          "name": "liquidity",
          "type": "uint256"
        },
        {
          "internalType": "uint256",
          "name": "amountTokenMin",
          "type": "uint256"
        },
        {
          "internalType": "uint256",
          "name": "amountKLCMin",
          "type": "uint256"
        },
        {
          "internalType": "address",
          "name": "to",
          "type": "address"
        },
        {
          "internalType": "uint256",
          "name": "deadline",
          "type": "uint256"
        },
        {
          "internalType": "bool",
          "name": "approveMax",
          "type": "bool"
        },
        {
          "internalType": "uint8",
          "name": "v",
          "type": "uint8"
        },
        {
          "internalType": "bytes32",
          "name": "r",
          "type": "bytes32"
        },
        {
          "internalType": "bytes32",
          "name": "s",
          "type": "bytes32"
        }
      ],
      "name": "removeLiquidityKLCWithPermitSupportingFeeOnTransferTokens",
      "outputs": [
        {
          "internalType": "uint256",
          "name": "amountKLC",
          "type": "uint256"
        }
      ],
      "stateMutability": "nonpayable",
      "type": "function"
    },
    {
      "inputs": [
        {
          "internalType": "address",
          "name": "tokenA",
          "type": "address"
        },
        {
          "internalType": "address",
          "name": "tokenB",
          "type": "address"
        },
        {
          "internalType": "uint256",
          "name": "liquidity",
          "type": "uint256"
        },
        {
          "internalType": "uint256",
          "name": "amountAMin",
          "type": "uint256"
        },
        {
          "internalType": "uint256",
          "name": "amountBMin",
          "type": "uint256"
        },
        {
          "internalType": "address",
          "name": "to",
          "type": "address"
        },
        {
          "internalType": "uint256",
          "name": "deadline",
          "type": "uint256"
        },
        {
          "internalType": "bool",
          "name": "approveMax",
          "type": "bool"
        },
        {
          "internalType": "uint8",
          "name": "v",
          "type": "uint8"
        },
        {
          "internalType": "bytes32",
          "name": "r",
          "type": "bytes32"
        },
        {
          "internalType": "bytes32",
          "name": "s",
          "type": "bytes32"
        }
      ],
      "name": "removeLiquidityWithPermit",
      "outputs": [
        {
          "internalType": "uint256",
          "name": "amountA",
          "type": "uint256"
        },
        {
          "internalType": "uint256",
          "name": "amountB",
          "type": "uint256"
        }
      ],
      "stateMutability": "nonpayable",
      "type": "function"
    },
    {
      "inputs": [
        {
          "internalType": "uint256",
          "name": "amountOutMin",
          "type": "uint256"
        },
        {
          "internalType": "address[]",
          "name": "path",
          "type": "address[]"
        },
        {
          "internalType": "address",
          "name": "to",
          "type": "address"
        },
        {
          "internalType": "uint256",
          "name": "deadline",
          "type": "uint256"
        }
      ],
      "name": "swapExactKLCForTokens",
      "outputs": [
        {
          "internalType": "uint256[]",
          "name": "amounts",
          "type": "uint256[]"
        }
      ],
      "stateMutability": "payable",
      "type": "function"
    },
    {
      "inputs": [
        {
          "internalType": "uint256",
          "name": "amountOutMin",
          "type": "uint256"
        },
        {
          "internalType": "address[]",
          "name": "path",
          "type": "address[]"
        },
        {
          "internalType": "address",
          "name": "to",
          "type": "address"
        },
        {
          "internalType": "uint256",
          "name": "deadline",
          "type": "uint256"
        }
      ],
      "name": "swapExactKLCForTokensSupportingFeeOnTransferTokens",
      "outputs": [],
      "stateMutability": "payable",
      "type": "function"
    },
    {
      "inputs": [
        {
          "internalType": "uint256",
          "name": "amountIn",
          "type": "uint256"
        },
        {
          "internalType": "uint256",
          "name": "amountOutMin",
          "type": "uint256"
        },
        {
          "internalType": "address[]",
          "name": "path",
          "type": "address[]"
        },
        {
          "internalType": "address",
          "name": "to",
          "type": "address"
        },
        {
          "internalType": "uint256",
          "name": "deadline",
          "type": "uint256"
        }
      ],
      "name": "swapExactTokensForKLC",
      "outputs": [
        {
          "internalType": "uint256[]",
          "name": "amounts",
          "type": "uint256[]"
        }
      ],
      "stateMutability": "nonpayable",
      "type": "function"
    },
    {
      "inputs": [
        {
          "internalType": "uint256",
          "name": "amountIn",
          "type": "uint256"
        },
        {
          "internalType": "uint256",
          "name": "amountOutMin",
          "type": "uint256"
        },
        {
          "internalType": "address[]",
          "name": "path",
          "type": "address[]"
        },
        {
          "internalType": "address",
          "name": "to",
          "type": "address"
        },
        {
          "internalType": "uint256",
          "name": "deadline",
          "type": "uint256"
        }
      ],
      "name": "swapExactTokensForKLCSupportingFeeOnTransferTokens",
      "outputs": [],
      "stateMutability": "nonpayable",
      "type": "function"
    },
    {
      "inputs": [
        {
          "internalType": "uint256",
          "name": "amountIn",
          "type": "uint256"
        },
        {
          "internalType": "uint256",
          "name": "amountOutMin",
          "type": "uint256"
        },
        {
          "internalType": "address[]",
          "name": "path",
          "type": "address[]"
        },
        {
          "internalType": "address",
          "name": "to",
          "type": "address"
        },
        {
          "internalType": "uint256",
          "name": "deadline",
          "type": "uint256"
        }
      ],
      "name": "swapExactTokensForTokens",
      "outputs": [
        {
          "internalType": "uint256[]",
          "name": "amounts",
          "type": "uint256[]"
        }
      ],
      "stateMutability": "nonpayable",
      "type": "function"
    },
    {
      "inputs": [
        {
          "internalType": "uint256",
          "name": "amountIn",
          "type": "uint256"
        },
        {
          "internalType": "uint256",
          "name": "amountOutMin",
          "type": "uint256"
        },
        {
          "internalType": "address[]",
          "name": "path",
          "type": "address[]"
        },
        {
          "internalType": "address",
          "name": "to",
          "type": "address"
        },
        {
          "internalType": "uint256",
          "name": "deadline",
          "type": "uint256"
        }
      ],
      "name": "swapExactTokensForTokensSupportingFeeOnTransferTokens",
      "outputs": [],
      "stateMutability": "nonpayable",
      "type": "function"
    },
    {
      "inputs": [
        {
          "internalType": "uint256",
          "name": "amountOut",
          "type": "uint256"
        },
        {
          "internalType": "address[]",
          "name": "path",
          "type": "address[]"
        },
        {
          "internalType": "address",
          "name": "to",
          "type": "address"
        },
        {
          "internalType": "uint256",
          "name": "deadline",
          "type": "uint256"
        }
      ],
      "name": "swapKLCForExactTokens",
      "outputs": [
        {
          "internalType": "uint256[]",
          "name": "amounts",
          "type": "uint256[]"
        }
      ],
      "stateMutability": "payable",
      "type": "function"
    },
    {
      "inputs": [
        {
          "internalType": "uint256",
          "name": "amountOut",
          "type": "uint256"
        },
        {
          "internalType": "uint256",
          "name": "amountInMax",
          "type": "uint256"
        },
        {
          "internalType": "address[]",
          "name": "path",
          "type": "address[]"
        },
        {
          "internalType": "address",
          "name": "to",
          "type": "address"
        },
        {
          "internalType": "uint256",
          "name": "deadline",
          "type": "uint256"
        }
      ],
      "name": "swapTokensForExactKLC",
      "outputs": [
        {
          "internalType": "uint256[]",
          "name": "amounts",
          "type": "uint256[]"
        }
      ],
      "stateMutability": "nonpayable",
      "type": "function"
    },
    {
      "inputs": [
        {
          "internalType": "uint256",
          "name": "amountOut",
          "type": "uint256"
        },
        {
          "internalType": "uint256",
          "name": "amountInMax",
          "type": "uint256"
        },
        {
          "internalType": "address[]",
          "name": "path",
          "type": "address[]"
        },
        {
          "internalType": "address",
          "name": "to",
          "type": "address"
        },
        {
          "internalType": "uint256",
          "name": "deadline",
          "type": "uint256"
        }
      ],
      "name": "swapTokensForExactTokens",
      "outputs": [
        {
          "internalType": "uint256[]",
          "name": "amounts",
          "type": "uint256[]"
        }
      ],
      "stateMutability": "nonpayable",
      "type": "function"
    },
    {
      "stateMutability": "payable",
      "type": "receive"
    }
  ],
  "bytecode": "0x60c060405234801561001057600080fd5b50604051620048e8380380620048e88339818101604052604081101561003557600080fd5b5080516020909101516001600160601b0319606092831b8116608052911b1660a05260805160601c60a05160601c614763620001856000398061019f5280610d525280610f7f5280611040528061108e52806111c25280611271528061185652806118ac52806118e052806119545280611bff5280611c3a5280611d215280611e765280611efe52806120bf5280612217528061229f5280612420528061252c52806125e252806126ae528061275552806127c95280612cde5280612e12525080610df25280610ec6528061106c52806112fe5280611337528061147252806115dc528061188a5280611b045280611dc65280611f30528061216452806122d152806127fb5280612a545280612c655280612c8e5280612cbc5280612eb25280612fc652806135d552806136185280613b8a5280613d105280613f005280613fc7528061404752506147636000f3fe60806040526004361061018f5760003560e01c8063ad477b4d116100d6578063baa2abde1161007f578063d3b5b4c811610059578063d3b5b4c814610b80578063d53a791e14610bf3578063e8e3370014610c8b576101c8565b8063baa2abde14610a57578063c45a015514610ab4578063d06ca61f14610ac9576101c8565b8063b6124cc7116100b0578063b6124cc7146108b3578063b6e1d02414610939578063b6f315e9146109d1576101c8565b8063ad477b4d146107a4578063ad615dec146107f7578063ad87fb0a1461082d576101c8565b80632195995c11610138578063801ef55d11610112578063801ef55d1461067257806385f8c259146106d65780638803dbee1461070c576101c8565b80632195995c146104c457806338ed1739146105425780635c11d795146105da576101c8565b8063114445f911610169578063114445f91461032e578063173dab80146103ba5780631f00ca741461040d576101c8565b8063054d50d4146101cd578063056d950514610215578063105e4308146102fd576101c8565b366101c857336001600160a01b037f000000000000000000000000000000000000000000000000000000000000000016146101c657fe5b005b600080fd5b3480156101d957600080fd5b50610203600480360360608110156101f057600080fd5b5080359060208101359060400135610ced565b60408051918252519081900360200190f35b34801561022157600080fd5b506102ad600480360360a081101561023857600080fd5b81359160208101359181019060608101604082013564010000000081111561025f57600080fd5b82018360208201111561027157600080fd5b8035906020019184602083028401116401000000008311171561029357600080fd5b91935091506001600160a01b038135169060200135610d02565b60408051602080825283518183015283519192839290830191858101910280838360005b838110156102e95781810151838201526020016102d1565b505050509050019250505060405180910390f35b34801561030957600080fd5b5061031261103e565b604080516001600160a01b039092168252519081900360200190f35b34801561033a57600080fd5b506103a1600480360361014081101561035257600080fd5b506001600160a01b0381358116916020810135916040820135916060810135916080820135169060a08101359060c081013515159060ff60e08201351690610100810135906101200135611062565b6040805192835260208301919091528051918290030190f35b3480156103c657600080fd5b50610203600480360360c08110156103dd57600080fd5b506001600160a01b0381358116916020810135916040820135916060810135916080820135169060a00135611176565b34801561041957600080fd5b506102ad6004803603604081101561043057600080fd5b8135919081019060408101602082013564010000000081111561045257600080fd5b82018360208201111561046457600080fd5b8035906020019184602083028401116401000000008311171561048657600080fd5b9190808060200260200160405190810160405280939291908181526020018383602002808284376000920191909152509295506112f7945050505050565b3480156104d057600080fd5b506103a160048036036101608110156104e857600080fd5b506001600160a01b038135811691602081013582169160408201359160608101359160808201359160a08101359091169060c08101359060e081013515159060ff610100820135169061012081013590610140013561132d565b34801561054e57600080fd5b506102ad600480360360a081101561056557600080fd5b81359160208101359181019060608101604082013564010000000081111561058c57600080fd5b82018360208201111561059e57600080fd5b803590602001918460208302840111640100000000831117156105c057600080fd5b91935091506001600160a01b038135169060200135611427565b3480156105e657600080fd5b506101c6600480360360a08110156105fd57600080fd5b81359160208101359181019060608101604082013564010000000081111561062457600080fd5b82018360208201111561063657600080fd5b8035906020019184602083028401116401000000008311171561065857600080fd5b91935091506001600160a01b038135169060200135611572565b6106b8600480360360c081101561068857600080fd5b506001600160a01b0381358116916020810135916040820135916060810135916080820135169060a00135611807565b60408051938452602084019290925282820152519081900360600190f35b3480156106e257600080fd5b50610203600480360360608110156106f957600080fd5b5080359060208101359060400135611aac565b34801561071857600080fd5b506102ad600480360360a081101561072f57600080fd5b81359160208101359181019060608101604082013564010000000081111561075657600080fd5b82018360208201111561076857600080fd5b8035906020019184602083028401116401000000008311171561078a57600080fd5b91935091506001600160a01b038135169060200135611ab9565b3480156107b057600080fd5b506103a1600480360360c08110156107c757600080fd5b506001600160a01b0381358116916020810135916040820135916060810135916080820135169060a00135611bb2565b34801561080357600080fd5b506102036004803603606081101561081a57600080fd5b5080359060208101359060400135611ccc565b6102ad6004803603608081101561084357600080fd5b8135919081019060408101602082013564010000000081111561086557600080fd5b82018360208201111561087757600080fd5b8035906020019184602083028401116401000000008311171561089957600080fd5b91935091506001600160a01b038135169060200135611cd9565b6102ad600480360360808110156108c957600080fd5b813591908101906040810160208201356401000000008111156108eb57600080fd5b8201836020820111156108fd57600080fd5b8035906020019184602083028401116401000000008311171561091f57600080fd5b91935091506001600160a01b038135169060200135612077565b34801561094557600080fd5b506101c6600480360360a081101561095c57600080fd5b81359160208101359181019060608101604082013564010000000081111561098357600080fd5b82018360208201111561099557600080fd5b803590602001918460208302840111640100000000831117156109b757600080fd5b91935091506001600160a01b0381351690602001356123d2565b6101c6600480360360808110156109e757600080fd5b81359190810190604081016020820135640100000000811115610a0957600080fd5b820183602082011115610a1b57600080fd5b80359060200191846020830284011164010000000083111715610a3d57600080fd5b91935091506001600160a01b038135169060200135612668565b348015610a6357600080fd5b506103a1600480360360e0811015610a7a57600080fd5b506001600160a01b038135811691602081013582169160408201359160608101359160808201359160a08101359091169060c00135612a06565b348015610ac057600080fd5b50610312612c63565b348015610ad557600080fd5b506102ad60048036036040811015610aec57600080fd5b81359190810190604081016020820135640100000000811115610b0e57600080fd5b820183602082011115610b2057600080fd5b80359060200191846020830284011164010000000083111715610b4257600080fd5b919080806020026020016040519081016040528093929190818152602001838360200280828437600092019190915250929550612c87945050505050565b348015610b8c57600080fd5b506102036004803603610140811015610ba457600080fd5b506001600160a01b0381358116916020810135916040820135916060810135916080820135169060a08101359060c081013515159060ff60e08201351690610100810135906101200135612cb4565b348015610bff57600080fd5b506102ad600480360360a0811015610c1657600080fd5b813591602081013591810190606081016040820135640100000000811115610c3d57600080fd5b820183602082011115610c4f57600080fd5b80359060200191846020830284011164010000000083111715610c7157600080fd5b91935091506001600160a01b038135169060200135612dc2565b348015610c9757600080fd5b506106b86004803603610100811015610caf57600080fd5b506001600160a01b038135811691602081013582169160408201359160608101359160808201359160a08101359160c0820135169060e00135612f63565b6000610cfa84848461309f565b949350505050565b60608142811015610d48576040805162461bcd60e51b815260206004820152601760248201526000805160206146ea833981519152604482015290519081900360640190fd5b6001600160a01b037f00000000000000000000000000000000000000000000000000000000000000001686866000198101818110610d8257fe5b905060200201356001600160a01b03166001600160a01b031614610ded576040805162461bcd60e51b815260206004820152601c60248201527f4b616c7973776170526f757465723a20494e56414c49445f5041544800000000604482015290519081900360640190fd5b610e4b7f00000000000000000000000000000000000000000000000000000000000000008988888080602002602001604051908101604052809392919081815260200183836020028082843760009201919091525061318f92505050565b91508682600081518110610e5b57fe5b60200260200101511115610ea05760405162461bcd60e51b81526004018080602001828103825260268152602001806145696026913960400191505060405180910390fd5b610f3e86866000818110610eb057fe5b905060200201356001600160a01b031633610f247f00000000000000000000000000000000000000000000000000000000000000008a8a6000818110610ef257fe5b905060200201356001600160a01b03168b8b6001818110610f0f57fe5b905060200201356001600160a01b03166132dc565b85600081518110610f3157fe5b60200260200101516133b4565b610f7d82878780806020026020016040519081016040528093929190818152602001838360200280828437600092019190915250309250613526915050565b7f00000000000000000000000000000000000000000000000000000000000000006001600160a01b0316632e1a7d4d83600185510381518110610fbc57fe5b60200260200101516040518263ffffffff1660e01b815260040180828152602001915050600060405180830381600087803b158015610ffa57600080fd5b505af115801561100e573d6000803e3d6000fd5b50505050611033848360018551038151811061102657fe5b602002602001015161376c565b509695505050505050565b7f000000000000000000000000000000000000000000000000000000000000000081565b60008060006110b27f00000000000000000000000000000000000000000000000000000000000000008e7f00000000000000000000000000000000000000000000000000000000000000006132dc565b90506000876110c1578c6110c5565b6000195b6040805163d505accf60e01b815233600482015230602482015260448101839052606481018c905260ff8a16608482015260a4810189905260c4810188905290519192506001600160a01b0384169163d505accf9160e48082019260009290919082900301818387803b15801561113b57600080fd5b505af115801561114f573d6000803e3d6000fd5b505050506111618e8e8e8e8e8e611bb2565b909f909e509c50505050505050505050505050565b600081428110156111bc576040805162461bcd60e51b815260206004820152601760248201526000805160206146ea833981519152604482015290519081900360640190fd5b6111eb887f00000000000000000000000000000000000000000000000000000000000000008989893089612a06565b604080516370a0823160e01b8152306004820152905191945061126f92508a9187916001600160a01b038416916370a0823191602480820192602092909190829003018186803b15801561123e57600080fd5b505afa158015611252573d6000803e3d6000fd5b505050506040513d602081101561126857600080fd5b5051613864565b7f00000000000000000000000000000000000000000000000000000000000000006001600160a01b0316632e1a7d4d836040518263ffffffff1660e01b815260040180828152602001915050600060405180830381600087803b1580156112d557600080fd5b505af11580156112e9573d6000803e3d6000fd5b50505050611033848361376c565b60606113247f0000000000000000000000000000000000000000000000000000000000000000848461318f565b90505b92915050565b600080600061135d7f00000000000000000000000000000000000000000000000000000000000000008f8f6132dc565b905060008761136c578c611370565b6000195b6040805163d505accf60e01b815233600482015230602482015260448101839052606481018c905260ff8a16608482015260a4810189905260c4810188905290519192506001600160a01b0384169163d505accf9160e48082019260009290919082900301818387803b1580156113e657600080fd5b505af11580156113fa573d6000803e3d6000fd5b5050505061140d8f8f8f8f8f8f8f612a06565b809450819550505050509b509b9950505050505050505050565b6060814281101561146d576040805162461bcd60e51b815260206004820152601760248201526000805160206146ea833981519152604482015290519081900360640190fd5b6114cb7f0000000000000000000000000000000000000000000000000000000000000000898888808060200260200160405190810160405280939291908181526020018383602002808284376000920191909152506139fc92505050565b915086826001845103815181106114de57fe5b602002602001015110156115235760405162461bcd60e51b815260040180806020018281038252602a8152602001806145b4602a913960400191505060405180910390fd5b61153386866000818110610eb057fe5b61103382878780806020026020016040519081016040528093929190818152602001838360200280828437600092019190915250899250613526915050565b80428110156115b6576040805162461bcd60e51b815260206004820152601760248201526000805160206146ea833981519152604482015290519081900360640190fd5b61162b858560008181106115c657fe5b905060200201356001600160a01b0316336116257f00000000000000000000000000000000000000000000000000000000000000008989600081811061160857fe5b905060200201356001600160a01b03168a8a6001818110610f0f57fe5b8a6133b4565b60008585600019810181811061163d57fe5b905060200201356001600160a01b03166001600160a01b03166370a08231856040518263ffffffff1660e01b815260040180826001600160a01b03166001600160a01b0316815260200191505060206040518083038186803b1580156116a257600080fd5b505afa1580156116b6573d6000803e3d6000fd5b505050506040513d60208110156116cc57600080fd5b5051604080516020888102828101820190935288825292935061170e929091899189918291850190849080828437600092019190915250889250613b33915050565b866117c0828888600019810181811061172357fe5b905060200201356001600160a01b03166001600160a01b03166370a08231886040518263ffffffff1660e01b815260040180826001600160a01b03166001600160a01b0316815260200191505060206040518083038186803b15801561178857600080fd5b505afa15801561179c573d6000803e3d6000fd5b505050506040513d60208110156117b257600080fd5b50519063ffffffff613e5e16565b10156117fd5760405162461bcd60e51b815260040180806020018281038252602a8152602001806145b4602a913960400191505060405180910390fd5b5050505050505050565b60008060008342811015611850576040805162461bcd60e51b815260206004820152601760248201526000805160206146ea833981519152604482015290519081900360640190fd5b61187e8a7f00000000000000000000000000000000000000000000000000000000000000008b348c8c613eb6565b909450925060006118d07f00000000000000000000000000000000000000000000000000000000000000008c7f00000000000000000000000000000000000000000000000000000000000000006132dc565b90506118de8b3383886133b4565b7f00000000000000000000000000000000000000000000000000000000000000006001600160a01b031663d0e30db0856040518263ffffffff1660e01b81526004016000604051808303818588803b15801561193957600080fd5b505af115801561194d573d6000803e3d6000fd5b50505050507f00000000000000000000000000000000000000000000000000000000000000006001600160a01b031663a9059cbb82866040518363ffffffff1660e01b815260040180836001600160a01b03166001600160a01b0316815260200182815260200192505050602060405180830381600087803b1580156119d257600080fd5b505af11580156119e6573d6000803e3d6000fd5b505050506040513d60208110156119fc57600080fd5b5051611a0457fe5b806001600160a01b0316636a627842886040518263ffffffff1660e01b815260040180826001600160a01b03166001600160a01b03168152602001915050602060405180830381600087803b158015611a5c57600080fd5b505af1158015611a70573d6000803e3d6000fd5b505050506040513d6020811015611a8657600080fd5b5051925034841015611a9e57611a9e3385340361376c565b505096509650969350505050565b6000610cfa84848461415c565b60608142811015611aff576040805162461bcd60e51b815260206004820152601760248201526000805160206146ea833981519152604482015290519081900360640190fd5b611b5d7f00000000000000000000000000000000000000000000000000000000000000008988888080602002602001604051908101604052809392919081815260200183836020028082843760009201919091525061318f92505050565b91508682600081518110611b6d57fe5b602002602001015111156115235760405162461bcd60e51b81526004018080602001828103825260268152602001806145696026913960400191505060405180910390fd5b6000808242811015611bf9576040805162461bcd60e51b815260206004820152601760248201526000805160206146ea833981519152604482015290519081900360640190fd5b611c28897f00000000000000000000000000000000000000000000000000000000000000008a8a8a308a612a06565b9093509150611c38898685613864565b7f00000000000000000000000000000000000000000000000000000000000000006001600160a01b0316632e1a7d4d836040518263ffffffff1660e01b815260040180828152602001915050600060405180830381600087803b158015611c9e57600080fd5b505af1158015611cb2573d6000803e3d6000fd5b50505050611cc0858361376c565b50965096945050505050565b6000610cfa84848461424c565b60608142811015611d1f576040805162461bcd60e51b815260206004820152601760248201526000805160206146ea833981519152604482015290519081900360640190fd5b7f00000000000000000000000000000000000000000000000000000000000000006001600160a01b031686866000818110611d5657fe5b905060200201356001600160a01b03166001600160a01b031614611dc1576040805162461bcd60e51b815260206004820152601c60248201527f4b616c7973776170526f757465723a20494e56414c49445f5041544800000000604482015290519081900360640190fd5b611e1f7f00000000000000000000000000000000000000000000000000000000000000008888888080602002602001604051908101604052809392919081815260200183836020028082843760009201919091525061318f92505050565b91503482600081518110611e2f57fe5b60200260200101511115611e745760405162461bcd60e51b81526004018080602001828103825260268152602001806145696026913960400191505060405180910390fd5b7f00000000000000000000000000000000000000000000000000000000000000006001600160a01b031663d0e30db083600081518110611eb057fe5b60200260200101516040518263ffffffff1660e01b81526004016000604051808303818588803b158015611ee357600080fd5b505af1158015611ef7573d6000803e3d6000fd5b50505050507f00000000000000000000000000000000000000000000000000000000000000006001600160a01b031663a9059cbb611f5c7f00000000000000000000000000000000000000000000000000000000000000008989600081811061160857fe5b84600081518110611f6957fe5b60200260200101516040518363ffffffff1660e01b815260040180836001600160a01b03166001600160a01b0316815260200182815260200192505050602060405180830381600087803b158015611fc057600080fd5b505af1158015611fd4573d6000803e3d6000fd5b505050506040513d6020811015611fea57600080fd5b5051611ff257fe5b61203182878780806020026020016040519081016040528093929190818152602001838360200280828437600092019190915250899250613526915050565b8160008151811061203e57fe5b602002602001015134111561206d5761206d338360008151811061205e57fe5b6020026020010151340361376c565b5095945050505050565b606081428110156120bd576040805162461bcd60e51b815260206004820152601760248201526000805160206146ea833981519152604482015290519081900360640190fd5b7f00000000000000000000000000000000000000000000000000000000000000006001600160a01b0316868660008181106120f457fe5b905060200201356001600160a01b03166001600160a01b03161461215f576040805162461bcd60e51b815260206004820152601c60248201527f4b616c7973776170526f757465723a20494e56414c49445f5041544800000000604482015290519081900360640190fd5b6121bd7f0000000000000000000000000000000000000000000000000000000000000000348888808060200260200160405190810160405280939291908181526020018383602002808284376000920191909152506139fc92505050565b915086826001845103815181106121d057fe5b602002602001015110156122155760405162461bcd60e51b815260040180806020018281038252602a8152602001806145b4602a913960400191505060405180910390fd5b7f00000000000000000000000000000000000000000000000000000000000000006001600160a01b031663d0e30db08360008151811061225157fe5b60200260200101516040518263ffffffff1660e01b81526004016000604051808303818588803b15801561228457600080fd5b505af1158015612298573d6000803e3d6000fd5b50505050507f00000000000000000000000000000000000000000000000000000000000000006001600160a01b031663a9059cbb6122fd7f00000000000000000000000000000000000000000000000000000000000000008989600081811061160857fe5b8460008151811061230a57fe5b60200260200101516040518363ffffffff1660e01b815260040180836001600160a01b03166001600160a01b0316815260200182815260200192505050602060405180830381600087803b15801561236157600080fd5b505af1158015612375573d6000803e3d6000fd5b505050506040513d602081101561238b57600080fd5b505161239357fe5b61206d82878780806020026020016040519081016040528093929190818152602001838360200280828437600092019190915250899250613526915050565b8042811015612416576040805162461bcd60e51b815260206004820152601760248201526000805160206146ea833981519152604482015290519081900360640190fd5b6001600160a01b037f0000000000000000000000000000000000000000000000000000000000000000168585600019810181811061245057fe5b905060200201356001600160a01b03166001600160a01b0316146124bb576040805162461bcd60e51b815260206004820152601c60248201527f4b616c7973776170526f757465723a20494e56414c49445f5041544800000000604482015290519081900360640190fd5b6124cb858560008181106115c657fe5b612509858580806020026020016040519081016040528093929190818152602001838360200280828437600092019190915250309250613b33915050565b604080516370a0823160e01b815230600482015290516000916001600160a01b037f000000000000000000000000000000000000000000000000000000000000000016916370a0823191602480820192602092909190829003018186803b15801561257357600080fd5b505afa158015612587573d6000803e3d6000fd5b505050506040513d602081101561259d57600080fd5b50519050868110156125e05760405162461bcd60e51b815260040180806020018281038252602a8152602001806145b4602a913960400191505060405180910390fd5b7f00000000000000000000000000000000000000000000000000000000000000006001600160a01b0316632e1a7d4d826040518263ffffffff1660e01b815260040180828152602001915050600060405180830381600087803b15801561264657600080fd5b505af115801561265a573d6000803e3d6000fd5b505050506117fd848261376c565b80428110156126ac576040805162461bcd60e51b815260206004820152601760248201526000805160206146ea833981519152604482015290519081900360640190fd5b7f00000000000000000000000000000000000000000000000000000000000000006001600160a01b0316858560008181106126e357fe5b905060200201356001600160a01b03166001600160a01b03161461274e576040805162461bcd60e51b815260206004820152601c60248201527f4b616c7973776170526f757465723a20494e56414c49445f5041544800000000604482015290519081900360640190fd5b60003490507f00000000000000000000000000000000000000000000000000000000000000006001600160a01b031663d0e30db0826040518263ffffffff1660e01b81526004016000604051808303818588803b1580156127ae57600080fd5b505af11580156127c2573d6000803e3d6000fd5b50505050507f00000000000000000000000000000000000000000000000000000000000000006001600160a01b031663a9059cbb6128277f00000000000000000000000000000000000000000000000000000000000000008989600081811061160857fe5b836040518363ffffffff1660e01b815260040180836001600160a01b03166001600160a01b0316815260200182815260200192505050602060405180830381600087803b15801561287757600080fd5b505af115801561288b573d6000803e3d6000fd5b505050506040513d60208110156128a157600080fd5b50516128a957fe5b6000868660001981018181106128bb57fe5b905060200201356001600160a01b03166001600160a01b03166370a08231866040518263ffffffff1660e01b815260040180826001600160a01b03166001600160a01b0316815260200191505060206040518083038186803b15801561292057600080fd5b505afa158015612934573d6000803e3d6000fd5b505050506040513d602081101561294a57600080fd5b5051604080516020898102828101820190935289825292935061298c9290918a918a918291850190849080828437600092019190915250899250613b33915050565b876117c082898960001981018181106129a157fe5b905060200201356001600160a01b03166001600160a01b03166370a08231896040518263ffffffff1660e01b815260040180826001600160a01b03166001600160a01b0316815260200191505060206040518083038186803b15801561178857600080fd5b6000808242811015612a4d576040805162461bcd60e51b815260206004820152601760248201526000805160206146ea833981519152604482015290519081900360640190fd5b6000612a7a7f00000000000000000000000000000000000000000000000000000000000000008c8c6132dc565b604080516323b872dd60e01b81523360048201526001600160a01b03831660248201819052604482018d9052915192935090916323b872dd916064808201926020929091908290030181600087803b158015612ad557600080fd5b505af1158015612ae9573d6000803e3d6000fd5b505050506040513d6020811015612aff57600080fd5b5050604080517f89afcb440000000000000000000000000000000000000000000000000000000081526001600160a01b03888116600483015282516000938493928616926389afcb44926024808301939282900301818787803b158015612b6557600080fd5b505af1158015612b79573d6000803e3d6000fd5b505050506040513d6040811015612b8f57600080fd5b50805160209091015190925090506000612ba98e8e6142f8565b509050806001600160a01b03168e6001600160a01b031614612bcc578183612bcf565b82825b90975095508a871015612c135760405162461bcd60e51b815260040180806020018281038252602581526020018061458f6025913960400191505060405180910390fd5b89861015612c525760405162461bcd60e51b81526004018080602001828103825260258152602001806146a16025913960400191505060405180910390fd5b505050505097509795505050505050565b7f000000000000000000000000000000000000000000000000000000000000000081565b60606113247f000000000000000000000000000000000000000000000000000000000000000084846139fc565b600080612d027f00000000000000000000000000000000000000000000000000000000000000008d7f00000000000000000000000000000000000000000000000000000000000000006132dc565b9050600086612d11578b612d15565b6000195b6040805163d505accf60e01b815233600482015230602482015260448101839052606481018b905260ff8916608482015260a4810188905260c4810187905290519192506001600160a01b0384169163d505accf9160e48082019260009290919082900301818387803b158015612d8b57600080fd5b505af1158015612d9f573d6000803e3d6000fd5b50505050612db18d8d8d8d8d8d611176565b9d9c50505050505050505050505050565b60608142811015612e08576040805162461bcd60e51b815260206004820152601760248201526000805160206146ea833981519152604482015290519081900360640190fd5b6001600160a01b037f00000000000000000000000000000000000000000000000000000000000000001686866000198101818110612e4257fe5b905060200201356001600160a01b03166001600160a01b031614612ead576040805162461bcd60e51b815260206004820152601c60248201527f4b616c7973776170526f757465723a20494e56414c49445f5041544800000000604482015290519081900360640190fd5b612f0b7f0000000000000000000000000000000000000000000000000000000000000000898888808060200260200160405190810160405280939291908181526020018383602002808284376000920191909152506139fc92505050565b91508682600184510381518110612f1e57fe5b60200260200101511015610ea05760405162461bcd60e51b815260040180806020018281038252602a8152602001806145b4602a913960400191505060405180910390fd5b60008060008342811015612fac576040805162461bcd60e51b815260206004820152601760248201526000805160206146ea833981519152604482015290519081900360640190fd5b612fba8c8c8c8c8c8c613eb6565b90945092506000612fec7f00000000000000000000000000000000000000000000000000000000000000008e8e6132dc565b9050612ffa8d3383886133b4565b6130068c3383876133b4565b806001600160a01b0316636a627842886040518263ffffffff1660e01b815260040180826001600160a01b03166001600160a01b03168152602001915050602060405180830381600087803b15801561305e57600080fd5b505af1158015613072573d6000803e3d6000fd5b505050506040513d602081101561308857600080fd5b5051949d939c50939a509198505050505050505050565b60008084116130df5760405162461bcd60e51b815260040180806020018281038252602a81526020018061462d602a913960400191505060405180910390fd5b6000831180156130ef5750600082115b61312a5760405162461bcd60e51b815260040180806020018281038252602781526020018061467a6027913960400191505060405180910390fd5b600061313e856103e563ffffffff6143d616565b90506000613152828563ffffffff6143d616565b905060006131788361316c886103e863ffffffff6143d616565b9063ffffffff61444216565b905080828161318357fe5b04979650505050505050565b60606002825110156131e8576040805162461bcd60e51b815260206004820152601d60248201527f4b616c79737761704c6962726172793a20494e56414c49445f50415448000000604482015290519081900360640190fd5b815167ffffffffffffffff8111801561320057600080fd5b5060405190808252806020026020018201604052801561322a578160200160208202803683370190505b509050828160018351038151811061323e57fe5b60209081029190910101528151600019015b80156132d45760008061328d8786600186038151811061326c57fe5b602002602001015187868151811061328057fe5b602002602001015161449a565b915091506132af8484815181106132a057fe5b6020026020010151838361415c565b8460018503815181106132be57fe5b6020908102919091010152505060001901613250565b509392505050565b60008060006132eb85856142f8565b604080516bffffffffffffffffffffffff19606094851b811660208084019190915293851b81166034830152825160288184030181526048830184528051908501207fff0000000000000000000000000000000000000000000000000000000000000060688401529a90941b9093166069840152607d8301989098527f40231f6b438bce0797c9ada29b718a87ea0a5cea3fe9a771abdd76bd41a3e545609d808401919091528851808403909101815260bd909201909752805196019590952095945050505050565b604080516001600160a01b0385811660248301528481166044830152606480830185905283518084039091018152608490920183526020820180517bffffffffffffffffffffffffffffffffffffffffffffffffffffffff166323b872dd60e01b17815292518251600094606094938a169392918291908083835b6020831061344e5780518252601f19909201916020918201910161342f565b6001836020036101000a0380198251168184511680821785525050505050509050019150506000604051808303816000865af19150503d80600081146134b0576040519150601f19603f3d011682016040523d82523d6000602084013e6134b5565b606091505b50915091508180156134e35750805115806134e357508080602001905160208110156134e057600080fd5b50515b61351e5760405162461bcd60e51b815260040180806020018281038252602481526020018061470a6024913960400191505060405180910390fd5b505050505050565b60005b60018351038110156137665760008084838151811061354457fe5b602002602001015185846001018151811061355b57fe5b602002602001015191509150600061357383836142f8565b509050600087856001018151811061358757fe5b60200260200101519050600080836001600160a01b0316866001600160a01b0316146135b5578260006135b9565b6000835b91509150600060028a510388106135d05788613611565b6136117f0000000000000000000000000000000000000000000000000000000000000000878c8b6002018151811061360457fe5b60200260200101516132dc565b905061363e7f000000000000000000000000000000000000000000000000000000000000000088886132dc565b6001600160a01b031663022c0d9f84848460006040519080825280601f01601f19166020018201604052801561367b576020820181803683370190505b506040518563ffffffff1660e01b815260040180858152602001848152602001836001600160a01b03166001600160a01b0316815260200180602001828103825283818151815260200191508051906020019080838360005b838110156136ec5781810151838201526020016136d4565b50505050905090810190601f1680156137195780820380516001836020036101000a031916815260200191505b5095505050505050600060405180830381600087803b15801561373b57600080fd5b505af115801561374f573d6000803e3d6000fd5b505060019099019850613529975050505050505050565b50505050565b604080516000808252602082019092526001600160a01b0384169083906040518082805190602001908083835b602083106137b85780518252601f199092019160209182019101613799565b6001836020036101000a03801982511681845116808217855250505050505090500191505060006040518083038185875af1925050503d806000811461381a576040519150601f19603f3d011682016040523d82523d6000602084013e61381f565b606091505b505090508061385f5760405162461bcd60e51b81526004018080602001828103825260238152602001806146576023913960400191505060405180910390fd5b505050565b604080516001600160a01b038481166024830152604480830185905283518084039091018152606490920183526020820180517bffffffffffffffffffffffffffffffffffffffffffffffffffffffff167fa9059cbb00000000000000000000000000000000000000000000000000000000178152925182516000946060949389169392918291908083835b6020831061390f5780518252601f1990920191602091820191016138f0565b6001836020036101000a0380198251168184511680821785525050505050509050019150506000604051808303816000865af19150503d8060008114613971576040519150601f19603f3d011682016040523d82523d6000602084013e613976565b606091505b50915091508180156139a45750805115806139a457508080602001905160208110156139a157600080fd5b50515b6139f5576040805162461bcd60e51b815260206004820152601f60248201527f5472616e7366657248656c7065723a205452414e534645525f4641494c454400604482015290519081900360640190fd5b5050505050565b6060600282511015613a55576040805162461bcd60e51b815260206004820152601d60248201527f4b616c79737761704c6962726172793a20494e56414c49445f50415448000000604482015290519081900360640190fd5b815167ffffffffffffffff81118015613a6d57600080fd5b50604051908082528060200260200182016040528015613a97578160200160208202803683370190505b5090508281600081518110613aa857fe5b60200260200101818152505060005b60018351038110156132d457600080613aed87868581518110613ad657fe5b602002602001015187866001018151811061328057fe5b91509150613b0f848481518110613b0057fe5b6020026020010151838361309f565b848460010181518110613b1e57fe5b60209081029190910101525050600101613ab7565b60005b600183510381101561385f57600080848381518110613b5157fe5b6020026020010151858460010181518110613b6857fe5b6020026020010151915091506000613b8083836142f8565b5090506000613bb07f000000000000000000000000000000000000000000000000000000000000000085856132dc565b9050600080600080846001600160a01b0316630902f1ac6040518163ffffffff1660e01b815260040160606040518083038186803b158015613bf157600080fd5b505afa158015613c05573d6000803e3d6000fd5b505050506040513d6060811015613c1b57600080fd5b5080516020909101516dffffffffffffffffffffffffffff91821693501690506000806001600160a01b038a811690891614613c58578284613c5b565b83835b91509150613cb9828b6001600160a01b03166370a082318a6040518263ffffffff1660e01b815260040180826001600160a01b03166001600160a01b0316815260200191505060206040518083038186803b15801561178857600080fd5b9550613cc686838361309f565b945050505050600080856001600160a01b0316886001600160a01b031614613cf057826000613cf4565b6000835b91509150600060028c51038a10613d0b578a613d3f565b613d3f7f0000000000000000000000000000000000000000000000000000000000000000898e8d6002018151811061360457fe5b60408051600080825260208201928390527f022c0d9f00000000000000000000000000000000000000000000000000000000835260248201878152604483018790526001600160a01b038086166064850152608060848501908152845160a48601819052969750908c169563022c0d9f958a958a958a9591949193919260c486019290918190849084905b83811015613de2578181015183820152602001613dca565b50505050905090810190601f168015613e0f5780820380516001836020036101000a031916815260200191505b5095505050505050600060405180830381600087803b158015613e3157600080fd5b505af1158015613e45573d6000803e3d6000fd5b50506001909b019a50613b369950505050505050505050565b80820382811115611327576040805162461bcd60e51b815260206004820152601560248201527f64732d6d6174682d7375622d756e646572666c6f770000000000000000000000604482015290519081900360640190fd5b604080517fe6a439050000000000000000000000000000000000000000000000000000000081526001600160a01b03888116600483015287811660248301529151600092839283927f00000000000000000000000000000000000000000000000000000000000000009092169163e6a4390591604480820192602092909190829003018186803b158015613f4957600080fd5b505afa158015613f5d573d6000803e3d6000fd5b505050506040513d6020811015613f7357600080fd5b50516001600160a01b0316141561403f57604080517fc9c653960000000000000000000000000000000000000000000000000000000081526001600160a01b038a81166004830152898116602483015291517f00000000000000000000000000000000000000000000000000000000000000009092169163c9c65396916044808201926020929091908290030181600087803b15801561401257600080fd5b505af1158015614026573d6000803e3d6000fd5b505050506040513d602081101561403c57600080fd5b50505b60008061406d7f00000000000000000000000000000000000000000000000000000000000000008b8b61449a565b9150915081600014801561407f575080155b1561408f5787935086925061414f565b600061409c89848461424c565b90508781116140ef57858110156140e45760405162461bcd60e51b81526004018080602001828103825260258152602001806146a16025913960400191505060405180910390fd5b88945092508261414d565b60006140fc89848661424c565b90508981111561410857fe5b878110156141475760405162461bcd60e51b815260040180806020018281038252602581526020018061458f6025913960400191505060405180910390fd5b94508793505b505b5050965096945050505050565b600080841161419c5760405162461bcd60e51b815260040180806020018281038252602b8152602001806145de602b913960400191505060405180910390fd5b6000831180156141ac5750600082115b6141e75760405162461bcd60e51b815260040180806020018281038252602781526020018061467a6027913960400191505060405180910390fd5b600061420b6103e86141ff868863ffffffff6143d616565b9063ffffffff6143d616565b905060006142256103e56141ff868963ffffffff613e5e16565b9050614242600182848161423557fe5b049063ffffffff61444216565b9695505050505050565b600080841161428c5760405162461bcd60e51b81526004018080602001828103825260248152602001806146096024913960400191505060405180910390fd5b60008311801561429c5750600082115b6142d75760405162461bcd60e51b815260040180806020018281038252602781526020018061467a6027913960400191505060405180910390fd5b826142e8858463ffffffff6143d616565b816142ef57fe5b04949350505050565b600080826001600160a01b0316846001600160a01b0316141561434c5760405162461bcd60e51b81526004018080602001828103825260248152602001806146c66024913960400191505060405180910390fd5b826001600160a01b0316846001600160a01b03161061436c57828461436f565b83835b90925090506001600160a01b0382166143cf576040805162461bcd60e51b815260206004820152601d60248201527f4b616c79737761704c6962726172793a205a45524f5f41444452455353000000604482015290519081900360640190fd5b9250929050565b60008115806143f1575050808202828282816143ee57fe5b04145b611327576040805162461bcd60e51b815260206004820152601460248201527f64732d6d6174682d6d756c2d6f766572666c6f77000000000000000000000000604482015290519081900360640190fd5b80820182811015611327576040805162461bcd60e51b815260206004820152601460248201527f64732d6d6174682d6164642d6f766572666c6f77000000000000000000000000604482015290519081900360640190fd5b60008060006144a985856142f8565b5090506000806144ba8888886132dc565b6001600160a01b0316630902f1ac6040518163ffffffff1660e01b815260040160606040518083038186803b1580156144f257600080fd5b505afa158015614506573d6000803e3d6000fd5b505050506040513d606081101561451c57600080fd5b5080516020909101516dffffffffffffffffffffffffffff91821693501690506001600160a01b0387811690841614614556578082614559565b81815b9099909850965050505050505056fe4b616c7973776170526f757465723a204558434553534956455f494e5055545f414d4f554e544b616c7973776170526f757465723a20494e53554646494349454e545f415f414d4f554e544b616c7973776170526f757465723a20494e53554646494349454e545f4f55545055545f414d4f554e544b616c79737761704c6962726172793a20494e53554646494349454e545f4f55545055545f414d4f554e544b616c79737761704c6962726172793a20494e53554646494349454e545f414d4f554e544b616c79737761704c6962726172793a20494e53554646494349454e545f494e5055545f414d4f554e545472616e7366657248656c7065723a204b4c435f5452414e534645525f4641494c45444b616c79737761704c6962726172793a20494e53554646494349454e545f4c49515549444954594b616c7973776170526f757465723a20494e53554646494349454e545f425f414d4f554e544b616c79737761704c6962726172793a204944454e544943414c5f4144445245535345534b616c7973776170526f757465723a20455850495245440000000000000000005472616e7366657248656c7065723a205452414e534645525f46524f4d5f4641494c4544a2646970667358221220b79f34d4169499194fbfb5c9c9d48c828a00e5ad9e7eff5f7eef16e75331e44964736f6c63430006060033",
  "linkReferences": {},
  "deployedLinkReferences": {}
}